:100000000C9446000C9465000C9465000C946500FB
:100010000C9465000C9465000C9465000C946500CC
:100020000C9465000C9465000C9465000C946500BC
:100030000C9465000C94B5000C9465000C9465005C
:100040000C9465000C9465000C9465000C9465009C
:100050000C9465000C9465000C9465000C9465008C
:100060000C9465000C9465000C9465000C9465007C
:100070000C9465000C9465000C9465000C9465006C
:100080000C9465000C9465000C94650011241FBE4F
:10009000CFEFD0E4DEBFCDBF11E0A0E0B1E0E0E102
:1000A000F5E000E00BBF02C007900D92A231B1074E
:1000B000D9F721E0A2E1B1E001C01D92AA31B20757
:1000C000E1F70E9459020C9486020C940000CF9331
:1000D000DF93CDB7DEB781E890E02BE0FC01208311
:1000E00088E890E02DE730E0FC01318320838FE643
:1000F00090E022E0FC01208384E890E0FC01118282
:1001000010828091000190910101A0910201B091B3
:1001100003018093130190931401A0931501B093F0
:1001200016018FE590E0FC0120818FE590E02068CA
:10013000FC0120830000DF91CF910895CF93DF93DE
:10014000CDB7DEB781E890E0FC0110820000DF91BE
:10015000CF910895CF93DF93CDB7DEB781E0809341
:1001600012010000DF91CF9108951F920F920FB6F8
:100170000F9211240BB60F922F933F934F935F93DF
:100180006F937F938F939F93AF93BF93EF93FF935F
:10019000CF93DF93CDB7DEB7809113019091140117
:1001A000A0911501B09116010197A109B1098093A1
:1001B000130190931401A0931501B093160180913F
:1001C000130190911401A0911501B0911601892B92
:1001D0008A2B8B2B91F40E94AA00809100019091B0
:1001E0000101A0910201B09103018093130190934A
:1001F0001401A0931501B09316010000DF91CF9177
:10020000FF91EF91BF91AF919F918F917F916F91EE
:100210005F914F913F912F910F900BBE0F900FBEAA
:100220000F901F901895CF93DF9300D000D0CDB7DB
:10023000DEB769837A838B839C8389819A81AB81C2
:10024000BC818093000190930101A0930201B093BF
:1002500003018091000190910101A0910201B091F0
:1002600003018093130190931401A0931501B0939F
:10027000160100000F900F900F900F90DF91CF911B
:100280000895CF93DF9300D00F92CDB7DEB7898367
:100290007B836A8389818A3031F48A819B81BC01A6
:1002A0008DE00E94410180EC90E0FC018081882F6C
:1002B00090E080729927892BB1F386EC90E0298138
:1002C000FC01208380E090E00F900F900F90DF9171
:1002D000CF910895CF93DF93CDB7DEB7809118010A
:1002E000909119018330910509F47CC08430910507
:1002F00008F07DC08230910509F45EC0833091051D
:1003000008F075C0009721F0019709F43FC06FC055
:1003100080E290E0FC018081882F90E08170992735
:10032000892B51F48AE08093170181E090E090934B
:1003300019018093180160C080E290E0FC01808187
:10034000882F90E082709927892B51F48AE080935E
:10035000170182E090E090931901809318014CC03E
:1003600080E290E0FC018081882F90E083709927E3
:10037000892B39F483E090E0909319018093180160
:100380003BC0109219011092180136C080E290E033
:10039000FC018081882F90E081709927892B39F4A6
:1003A00081E090E0909319018093180125C010928C
:1003B00019011092180120C080E290E0FC018081B8
:1003C000882F90E082709927892B39F482E090E0A1
:1003D00090931901809318010FC010921901109287
:1003E00018010AC0109219011092180105C010924C
:1003F00019011092180100008091180190911901C3
:100400008330910509F444C08430910508F046C05A
:100410008230910519F18330910508F03FC00097B3
:1004200009F442C00197D1F5809117018A3081F417
:1004300085E290E0FC018081893038F485E290E02B
:10044000FC0120812F5FFC012083109217012DC039
:10045000809117018F5F8093170127C0809117014A
:100460008A3081F485E290E0FC018081882339F0B4
:1004700085E290E0FC0120812150FC012083109254
:10048000170113C0809117018F5F809317010DC072
:1004900085E290E027E0FC01208307C085E290E040
:1004A00027E0FC01208301C000000000DF91CF9114
:1004B0000895CF93DF93CDB7DEB781E290E0FC01E2
:1004C000108282E290E02FEFFC01208384E290E032
:1004D0002FEFFC01208385E290E0FC01108264E6AE
:1004E00070E080E090E00E9413010E94670085E2C6
:1004F00090E027E0FC012083000080911201882316
:10050000E1F3109212010E946A01F6CFF894FFCF36
:100510000100000000000002000000004101000096
:020520000000D9
:00000001FF
